{
  "contractName": "Coinflip",
  "abi": [
    {
      "anonymous": false,
      "inputs": [
        {
          "indexed": false,
          "internalType": "uint256",
          "name": "randomNumber",
          "type": "uint256"
        }
      ],
      "name": "generatedRandomNumber",
      "type": "event"
    },
    {
      "anonymous": false,
      "inputs": [
        {
          "indexed": false,
          "internalType": "string",
          "name": "description",
          "type": "string"
        }
      ],
      "name": "logNewProvableQuery",
      "type": "event"
    },
    {
      "constant": false,
      "inputs": [],
      "name": "close",
      "outputs": [],
      "payable": false,
      "stateMutability": "nonpayable",
      "type": "function"
    },
    {
      "constant": true,
      "inputs": [],
      "name": "latestNumber",
      "outputs": [
        {
          "internalType": "uint256",
          "name": "",
          "type": "uint256"
        }
      ],
      "payable": false,
      "stateMutability": "view",
      "type": "function"
    },
    {
      "constant": true,
      "inputs": [],
      "name": "player",
      "outputs": [
        {
          "internalType": "address payable",
          "name": "",
          "type": "address"
        }
      ],
      "payable": false,
      "stateMutability": "view",
      "type": "function"
    },
    {
      "constant": false,
      "inputs": [],
      "name": "placeBet",
      "outputs": [],
      "payable": true,
      "stateMutability": "payable",
      "type": "function"
    },
    {
      "constant": false,
      "inputs": [
        {
          "internalType": "bytes32",
          "name": "_myid",
          "type": "bytes32"
        },
        {
          "internalType": "string",
          "name": "_result",
          "type": "string"
        }
      ],
      "name": "__callback",
      "outputs": [],
      "payable": false,
      "stateMutability": "nonpayable",
      "type": "function"
    },
    {
      "constant": false,
      "inputs": [
        {
          "internalType": "bytes32",
          "name": "_queryId",
          "type": "bytes32"
        },
        {
          "internalType": "string",
          "name": "_result",
          "type": "string"
        },
        {
          "internalType": "bytes",
          "name": "_proof",
          "type": "bytes"
        }
      ],
      "name": "__callback",
      "outputs": [],
      "payable": false,
      "stateMutability": "nonpayable",
      "type": "function"
    },
    {
      "constant": true,
      "inputs": [],
      "name": "viewBalance",
      "outputs": [
        {
          "internalType": "uint256",
          "name": "",
          "type": "uint256"
        }
      ],
      "payable": false,
      "stateMutability": "view",
      "type": "function"
    },
    {
      "constant": false,
      "inputs": [],
      "name": "deposit",
      "outputs": [],
      "payable": true,
      "stateMutability": "payable",
      "type": "function"
    },
    {
      "constant": false,
      "inputs": [
        {
          "internalType": "uint256",
          "name": "profit",
          "type": "uint256"
        }
      ],
      "name": "withdraw",
      "outputs": [
        {
          "internalType": "uint256",
          "name": "",
          "type": "uint256"
        }
      ],
      "payable": false,
      "stateMutability": "nonpayable",
      "type": "function"
    }
  ],
  "bytecode": "0x60806040526000600960006101000a81548160ff021916908315150217905550336000806101000a81548173ffffffffffffffffffffffffffffffffffffffff021916908373ffffffffffffffffffffffffffffffffffffffff160217905550612c2f8061006e6000396000f3fe6080604052600436106100865760003560e01c806343d726d61161005957806343d726d61461034057806348db5f8914610357578063d0e30db0146103ae578063dc34b0aa146103b8578063f90f4560146103e357610086565b806327dc297e1461008b5780632e1a7d4d1461015d57806338bbfa50146101ac5780633ff1e05b14610315575b600080fd5b34801561009757600080fd5b5061015b600480360360408110156100ae57600080fd5b8101908080359060200190929190803590602001906401000000008111156100d557600080fd5b8201836020820111156100e757600080fd5b8035906020019184600183028401116401000000008311171561010957600080fd5b91908080601f016020809104026020016040519081016040528093929190818152602001838380828437600081840152601f19601f8201169050808301925050505050505091929192905050506103ed565b005b34801561016957600080fd5b506101966004803603602081101561018057600080fd5b8101908080359060200190929190505050610430565b6040518082815260200191505060405180910390f35b3480156101b857600080fd5b50610313600480360360608110156101cf57600080fd5b8101908080359060200190929190803590602001906401000000008111156101f657600080fd5b82018360208201111561020857600080fd5b8035906020019184600183028401116401000000008311171561022a57600080fd5b91908080601f016020809104026020016040519081016040528093929190818152602001838380828437600081840152601f19601f8201169050808301925050505050505091929192908035906020019064010000000081111561028d57600080fd5b82018360208201111561029f57600080fd5b803590602001918460018302840111640100000000831117156102c157600080fd5b91908080601f016020809104026020016040519081016040528093929190818152602001838380828437600081840152601f19601f820116905080830192505050505050509192919290505050610567565b005b34801561032157600080fd5b5061032a610703565b6040518082815260200191505060405180910390f35b34801561034c57600080fd5b506103556107e4565b005b34801561036357600080fd5b5061036c6108bf565b604051808273ffffffffffffffffffffffffffffffffffffffff1673ffffffffffffffffffffffffffffffffffffffff16815260200191505060405180910390f35b6103b66108e5565b005b3480156103c457600080fd5b506103cd6109b6565b6040518082815260200191505060405180910390f35b6103eb6109bc565b005b61042c828260006040519080825280601f01601f1916602001820160405280156104265781602001600182028038833980820191505090505b50610567565b5050565b60008060009054906101000a900473ffffffffffffffffffffffffffffffffffffffff1673ffffffffffffffffffffffffffffffffffffffff163373ffffffffffffffffffffffffffffffffffffffff16146104f4576040517f08c379a000000000000000000000000000000000000000000000000000000000815260040180806020018281038252600a8152602001807f41646d696e206f6e6c790000000000000000000000000000000000000000000081525060200191505060405180910390fd5b3073ffffffffffffffffffffffffffffffffffffffff163182111561051857600080fd5b3373ffffffffffffffffffffffffffffffffffffffff166108fc839081150290604051600060405180830381858888f1935050505015801561055e573d6000803e3d6000fd5b50819050919050565b61056f610c22565b73ffffffffffffffffffffffffffffffffffffffff163373ffffffffffffffffffffffffffffffffffffffff16146105a657600080fd5b60006002836040516020018082805190602001908083835b602083106105e157805182526020820191506020810190506020830392506105be565b6001836020036101000a0380198251168184511680821785525050505050509050019150506040516020818303038152906040528051906020012060001c8161062657fe5b06905060018114156106ab57600760009054906101000a900473ffffffffffffffffffffffffffffffffffffffff1673ffffffffffffffffffffffffffffffffffffffff166108fc600a6008546013028161067d57fe5b049081150290604051600060405180830381858888f193505050501580156106a9573d6000803e3d6000fd5b505b7fc13d60fe9dffdb6908d2d446cd18134373a51db0738ee04f296eeb9128121cbc816040518082815260200191505060405180910390a16000600960006101000a81548160ff02191690831515021790555050505050565b60008060009054906101000a900473ffffffffffffffffffffffffffffffffffffffff1673ffffffffffffffffffffffffffffffffffffffff163373ffffffffffffffffffffffffffffffffffffffff16146107c7576040517f08c379a000000000000000000000000000000000000000000000000000000000815260040180806020018281038252600a8152602001807f41646d696e206f6e6c790000000000000000000000000000000000000000000081525060200191505060405180910390fd5b3073ffffffffffffffffffffffffffffffffffffffff1631905090565b6000809054906101000a900473ffffffffffffffffffffffffffffffffffffffff1673ffffffffffffffffffffffffffffffffffffffff163373ffffffffffffffffffffffffffffffffffffffff16146108a6576040517f08c379a000000000000000000000000000000000000000000000000000000000815260040180806020018281038252600a8152602001807f41646d696e206f6e6c790000000000000000000000000000000000000000000081525060200191505060405180910390fd5b3373ffffffffffffffffffffffffffffffffffffffff16ff5b600760009054906101000a900473ffffffffffffffffffffffffffffffffffffffff1681565b6000809054906101000a900473ffffffffffffffffffffffffffffffffffffffff1673ffffffffffffffffffffffffffffffffffffffff163373ffffffffffffffffffffffffffffffffffffffff16146109a7576040517f08c379a000000000000000000000000000000000000000000000000000000000815260040180806020018281038252600a8152602001807f41646d696e206f6e6c790000000000000000000000000000000000000000000081525060200191505060405180910390fd5b600034116109b457600080fd5b565b60065481565b33600760006101000a81548173ffffffffffffffffffffffffffffffffffffffff021916908373ffffffffffffffffffffffffffffffffffffffff1602179055503460088190555060001515600960009054906101000a900460ff16151514610a8d576040517f08c379a00000000000000000000000000000000000000000000000000000000081526004018080602001828103825260138152602001807f4265742070656e64696e6720616c72656164790000000000000000000000000081525060200191505060405180910390fd5b600060085411610b05576040517f08c379a000000000000000000000000000000000000000000000000000000000815260040180806020018281038252600f8152602001807f426574206e6f7420656e7465726564000000000000000000000000000000000081525060200191505060405180910390fd5b60053073ffffffffffffffffffffffffffffffffffffffff163181610b2657fe5b046008541115610b9e576040517f08c379a00000000000000000000000000000000000000000000000000000000081526004018080602001828103825260128152602001807f426574206c696d6974206578636565646564000000000000000000000000000081525060200191505060405180910390fd5b6000809050600062030d409050610bb782600183610f42565b507f94f2559b5e2b297de3db1587daf2352e872ada3dad01dab9ee3733592fa22ed3604051808060200182810382526031815260200180612bca6031913960400191505060405180910390a16001600960006101000a81548160ff0219169083151502179055505050565b60008073ffffffffffffffffffffffffffffffffffffffff16600260009054906101000a900473ffffffffffffffffffffffffffffffffffffffff1673ffffffffffffffffffffffffffffffffffffffff161480610caa57506000610ca8600260009054906101000a900473ffffffffffffffffffffffffffffffffffffffff166114dd565b145b15610cbb57610cb960006114e8565b505b600260009054906101000a900473ffffffffffffffffffffffffffffffffffffffff1673ffffffffffffffffffffffffffffffffffffffff166338cc48316040518163ffffffff1660e01b8152600401602060405180830381600087803b158015610d2557600080fd5b505af1158015610d39573d6000803e3d6000fd5b505050506040513d6020811015610d4f57600080fd5b810190808051906020019092919050505073ffffffffffffffffffffffffffffffffffffffff16600160009054906101000a900473ffffffffffffffffffffffffffffffffffffffff1673ffffffffffffffffffffffffffffffffffffffff1614610e9a57600260009054906101000a900473ffffffffffffffffffffffffffffffffffffffff1673ffffffffffffffffffffffffffffffffffffffff166338cc48316040518163ffffffff1660e01b8152600401602060405180830381600087803b158015610e1e57600080fd5b505af1158015610e32573d6000803e3d6000fd5b505050506040513d6020811015610e4857600080fd5b8101908080519060200190929190505050600160006101000a81548173ffffffffffffffffffffffffffffffffffffffff021916908373ffffffffffffffffffffffffffffffffffffffff1602179055505b600160009054906101000a900473ffffffffffffffffffffffffffffffffffffffff1673ffffffffffffffffffffffffffffffffffffffff1663c281d19e6040518163ffffffff1660e01b815260040160206040518083038186803b158015610f0257600080fd5b505afa158015610f16573d6000803e3d6000fd5b505050506040513d6020811015610f2c57600080fd5b8101908080519060200190929190505050905090565b60008083118015610f54575060208311155b610f5d57600080fd5b600a84029350606060016040519080825280601f01601f191660200182016040528015610f995781602001600182028038833980820191505090505b5090508360f81b81600081518110610fad57fe5b60200101907effffffffffffffffffffffffffffffffffffffffffffffffffffffffffffff1916908160001a905350606060206040519080825280601f01601f1916602001820160405280156110125781602001600182028038833980820191505090505b509050606060206040519080825280601f01601f19166020018201604052801561104b5781602001600182028038833980820191505090505b50905060006110586114f9565b905060208352424118600143034018602084015260208252806020830152606060206040519080825280601f01601f1916602001820160405280156110ac5781602001600182028038833980820191505090505b509050886020820152606060086040519080825280601f01601f1916602001820160405280156110eb5781602001600182028038833980820191505090505b5090506110fe8260186008846000611819565b50611107612ae3565b6040518060800160405280878152602001888152602001868152602001848152509050600061116c6040518060400160405280600681526020017f72616e646f6d0000000000000000000000000000000000000000000000000000815250838c611878565b9050606060086040519080825280601f01601f1916602001820160405280156111a45781602001600182028038833980820191505090505b50905060208401517f0100000000000000000000000000000000000000000000000000000000000000810460278301537e01000000000000000000000000000000000000000000000000000000000000810460268301537d010000000000000000000000000000000000000000000000000000000000810460258301537c0100000000000000000000000000000000000000000000000000000000810460248301537b01000000000000000000000000000000000000000000000000000000810460238301537a0100000000000000000000000000000000000000000000000000008104602283015379010000000000000000000000000000000000000000000000000081046021830153780100000000000000000000000000000000000000000000000081046020830153506114ca8282856001600481106112e357fe5b60200201516002876000600481106112f757fe5b60200201516040518082805190602001908083835b6020831061132f578051825260208201915060208101905060208303925061130c565b6001836020036101000a038019825116818451168082178552505050505050905001915050602060405180830381855afa158015611371573d6000803e3d6000fd5b5050506040513d602081101561138657600080fd5b8101908080519060200190929190505050876002600481106113a457fe5b60200201516040516020018085805190602001908083835b602083106113df57805182526020820191506020810190506020830392506113bc565b6001836020036101000a03801982511681845116808217855250505050505090500184805190602001908083835b60208310611430578051825260208201915060208101905060208303925061140d565b6001836020036101000a03801982511681845116808217855250505050505090500183815260200182805190602001908083835b602083106114875780518252602082019150602081019050602083039250611464565b6001836020036101000a03801982511681845116808217855250505050505090500194505050505060405160208183030381529060405280519060200120611be7565b8199505050505050505050509392505050565b6000813b9050919050565b60006114f2611c03565b9050919050565b60008073ffffffffffffffffffffffffffffffffffffffff16600260009054906101000a900473ffffffffffffffffffffffffffffffffffffffff1673ffffffffffffffffffffffffffffffffffffffff1614806115815750600061157f600260009054906101000a900473ffffffffffffffffffffffffffffffffffffffff166114dd565b145b156115925761159060006114e8565b505b600260009054906101000a900473ffffffffffffffffffffffffffffffffffffffff1673ffffffffffffffffffffffffffffffffffffffff166338cc48316040518163ffffffff1660e01b8152600401602060405180830381600087803b1580156115fc57600080fd5b505af1158015611610573d6000803e3d6000fd5b505050506040513d602081101561162657600080fd5b810190808051906020019092919050505073ffffffffffffffffffffffffffffffffffffffff16600160009054906101000a900473ffffffffffffffffffffffffffffffffffffffff1673ffffffffffffffffffffffffffffffffffffffff161461177157600260009054906101000a900473ffffffffffffffffffffffffffffffffffffffff1673ffffffffffffffffffffffffffffffffffffffff166338cc48316040518163ffffffff1660e01b8152600401602060405180830381600087803b1580156116f557600080fd5b505af1158015611709573d6000803e3d6000fd5b505050506040513d602081101561171f57600080fd5b8101908080519060200190929190505050600160006101000a81548173ffffffffffffffffffffffffffffffffffffffff021916908373ffffffffffffffffffffffffffffffffffffffff1602179055505b600160009054906101000a900473ffffffffffffffffffffffffffffffffffffffff1673ffffffffffffffffffffffffffffffffffffffff1663abaa5f3e6040518163ffffffff1660e01b815260040160206040518083038186803b1580156117d957600080fd5b505afa1580156117ed573d6000803e3d6000fd5b505050506040513d602081101561180357600080fd5b8101908080519060200190929190505050905090565b606060008285019050808451101561183057600080fd5b600086602001905060008460200190505b8688602001018210156118695781890151808288015250602082019150602081019050611841565b85935050505095945050505050565b60008073ffffffffffffffffffffffffffffffffffffffff16600260009054906101000a900473ffffffffffffffffffffffffffffffffffffffff1673ffffffffffffffffffffffffffffffffffffffff161480611900575060006118fe600260009054906101000a900473ffffffffffffffffffffffffffffffffffffffff166114dd565b145b156119115761190f60006114e8565b505b600260009054906101000a900473ffffffffffffffffffffffffffffffffffffffff1673ffffffffffffffffffffffffffffffffffffffff166338cc48316040518163ffffffff1660e01b8152600401602060405180830381600087803b15801561197b57600080fd5b505af115801561198f573d6000803e3d6000fd5b505050506040513d60208110156119a557600080fd5b810190808051906020019092919050505073ffffffffffffffffffffffffffffffffffffffff16600160009054906101000a900473ffffffffffffffffffffffffffffffffffffffff1673ffffffffffffffffffffffffffffffffffffffff1614611af057600260009054906101000a900473ffffffffffffffffffffffffffffffffffffffff1673ffffffffffffffffffffffffffffffffffffffff166338cc48316040518163ffffffff1660e01b8152600401602060405180830381600087803b158015611a7457600080fd5b505af1158015611a88573d6000803e3d6000fd5b505050506040513d6020811015611a9e57600080fd5b8101908080519060200190929190505050600160006101000a81548173ffffffffffffffffffffffffffffffffffffffff021916908373ffffffffffffffffffffffffffffffffffffffff1602179055505b60606004604051908082528060200260200182016040528015611b2757816020015b6060815260200190600190039081611b125790505b50905083600060048110611b3757fe5b602002015181600081518110611b4957fe5b602002602001018190525083600160048110611b6157fe5b602002015181600181518110611b7357fe5b602002602001018190525083600260048110611b8b57fe5b602002015181600281518110611b9d57fe5b602002602001018190525083600360048110611bb557fe5b602002015181600381518110611bc757fe5b6020026020010181905250611bdd85828561215a565b9150509392505050565b8060046000848152602001908152602001600020819055505050565b600080611c23731d3b2638a7cc9f2cb3d298a3da7a90b67e5506ed6114dd565b1115611cc557731d3b2638a7cc9f2cb3d298a3da7a90b67e5506ed600260006101000a81548173ffffffffffffffffffffffffffffffffffffffff021916908373ffffffffffffffffffffffffffffffffffffffff160217905550611cbc6040518060400160405280600b81526020017f6574685f6d61696e6e65740000000000000000000000000000000000000000008152506126c0565b60019050612157565b6000611ce473c03a2615d5efaf5f49f60b7bb6583eaec212fdf16114dd565b1115611d865773c03a2615d5efaf5f49f60b7bb6583eaec212fdf1600260006101000a81548173ffffffffffffffffffffffffffffffffffffffff021916908373ffffffffffffffffffffffffffffffffffffffff160217905550611d7d6040518060400160405280600c81526020017f6574685f726f707374656e3300000000000000000000000000000000000000008152506126c0565b60019050612157565b6000611da573b7a07bcf2ba2f2703b24c0691b5278999c59ac7e6114dd565b1115611e475773b7a07bcf2ba2f2703b24c0691b5278999c59ac7e600260006101000a81548173ffffffffffffffffffffffffffffffffffffffff021916908373ffffffffffffffffffffffffffffffffffffffff160217905550611e3e6040518060400160405280600981526020017f6574685f6b6f76616e00000000000000000000000000000000000000000000008152506126c0565b60019050612157565b6000611e6673146500cfd35b22e4a392fe0adc06de1a1368ed486114dd565b1115611f085773146500cfd35b22e4a392fe0adc06de1a1368ed48600260006101000a81548173ffffffffffffffffffffffffffffffffffffffff021916908373ffffffffffffffffffffffffffffffffffffffff160217905550611eff6040518060400160405280600b81526020017f6574685f72696e6b6562790000000000000000000000000000000000000000008152506126c0565b60019050612157565b6000611f2773a2998efd205fb9d4b4963afb70778d6354ad3a416114dd565b1115611fc95773a2998efd205fb9d4b4963afb70778d6354ad3a41600260006101000a81548173ffffffffffffffffffffffffffffffffffffffff021916908373ffffffffffffffffffffffffffffffffffffffff160217905550611fc06040518060400160405280600a81526020017f6574685f676f65726c69000000000000000000000000000000000000000000008152506126c0565b60019050612157565b6000611fe8736f485c8bf6fc43ea212e93bbf8ce046c7f1cb4756114dd565b111561204c57736f485c8bf6fc43ea212e93bbf8ce046c7f1cb475600260006101000a81548173ffffffffffffffffffffffffffffffffffffffff021916908373ffffffffffffffffffffffffffffffffffffffff16021790555060019050612157565b600061206b7320e12a1f859b3feae5fb2a0a32c18f5a65555bbf6114dd565b11156120cf577320e12a1f859b3feae5fb2a0a32c18f5a65555bbf600260006101000a81548173ffffffffffffffffffffffffffffffffffffffff021916908373ffffffffffffffffffffffffffffffffffffffff16021790555060019050612157565b60006120ee7351efaf4c8b3c9afbd5ab9f4bbc82784ab6ef8faa6114dd565b1115612152577351efaf4c8b3c9afbd5ab9f4bbc82784ab6ef8faa600260006101000a81548173ffffffffffffffffffffffffffffffffffffffff021916908373ffffffffffffffffffffffffffffffffffffffff16021790555060019050612157565b600090505b90565b60008073ffffffffffffffffffffffffffffffffffffffff16600260009054906101000a900473ffffffffffffffffffffffffffffffffffffffff1673ffffffffffffffffffffffffffffffffffffffff1614806121e2575060006121e0600260009054906101000a900473ffffffffffffffffffffffffffffffffffffffff166114dd565b145b156121f3576121f160006114e8565b505b600260009054906101000a900473ffffffffffffffffffffffffffffffffffffffff1673ffffffffffffffffffffffffffffffffffffffff166338cc48316040518163ffffffff1660e01b8152600401602060405180830381600087803b15801561225d57600080fd5b505af1158015612271573d6000803e3d6000fd5b505050506040513d602081101561228757600080fd5b810190808051906020019092919050505073ffffffffffffffffffffffffffffffffffffffff16600160009054906101000a900473ffffffffffffffffffffffffffffffffffffffff1673ffffffffffffffffffffffffffffffffffffffff16146123d257600260009054906101000a900473ffffffffffffffffffffffffffffffffffffffff1673ffffffffffffffffffffffffffffffffffffffff166338cc48316040518163ffffffff1660e01b8152600401602060405180830381600087803b15801561235657600080fd5b505af115801561236a573d6000803e3d6000fd5b505050506040513d602081101561238057600080fd5b8101908080519060200190929190505050600160006101000a81548173ffffffffffffffffffffffffffffffffffffffff021916908373ffffffffffffffffffffffffffffffffffffffff1602179055505b6000600160009054906101000a900473ffffffffffffffffffffffffffffffffffffffff1673ffffffffffffffffffffffffffffffffffffffff16632ef3accc86856040518363ffffffff1660e01b81526004018080602001838152602001828103825284818151815260200191508051906020019080838360005b8381101561246957808201518184015260208101905061244e565b50505050905090810190601f1680156124965780820380516001836020036101000a031916815260200191505b509350505050602060405180830381600087803b1580156124b657600080fd5b505af11580156124ca573d6000803e3d6000fd5b505050506040513d60208110156124e057600080fd5b81019080805190602001909291905050509050823a02670de0b6b3a764000001811115612513576000801b9150506126b9565b606061251e856126da565b9050600160009054906101000a900473ffffffffffffffffffffffffffffffffffffffff1673ffffffffffffffffffffffffffffffffffffffff1663c55c1cb68360008985896040518663ffffffff1660e01b8152600401808581526020018060200180602001848152602001838103835286818151815260200191508051906020019080838360005b838110156125c35780820151818401526020810190506125a8565b50505050905090810190601f1680156125f05780820380516001836020036101000a031916815260200191505b50838103825285818151815260200191508051906020019080838360005b8381101561262957808201518184015260208101905061260e565b50505050905090810190601f1680156126565780820380516001836020036101000a031916815260200191505b5096505050505050506020604051808303818588803b15801561267857600080fd5b505af115801561268c573d6000803e3d6000fd5b50505050506040513d60208110156126a357600080fd5b8101908080519060200190929190505050925050505b9392505050565b80600390805190602001906126d6929190612b0a565b5050565b60606126e461275a565b6126ec612b8a565b6126f881610400612766565b612701816127b0565b60008090505b83518110156127435761273684828151811061271f57fe5b6020026020010151836127be90919063ffffffff16565b8080600101915050612707565b5061274d816127e3565b8060000151915050919050565b60405180590338823950565b600081905060006020828161277757fe5b0614612790576020818161278757fe5b06602003810190505b808360200181815250506040518084526000815281810160405250505050565b6127bb8160046127f1565b50565b6127cb8260028351612812565b6127de818361295290919063ffffffff16565b505050565b6127ee8160076127f1565b50565b61280e601f60058360ff16901b17836129fd90919063ffffffff16565b5050565b6017811161283e576128398160058460ff16901b60ff1617846129fd90919063ffffffff16565b61294d565b60ff811161287f57612863601860058460ff16901b17846129fd90919063ffffffff16565b61287981600185612a3d9092919063ffffffff16565b5061294c565b61ffff81116128c1576128a5601960058460ff16901b17846129fd90919063ffffffff16565b6128bb81600285612a3d9092919063ffffffff16565b5061294b565b63ffffffff8111612905576128e9601a60058460ff16901b17846129fd90919063ffffffff16565b6128ff81600485612a3d9092919063ffffffff16565b5061294a565b67ffffffffffffffff811161294957612931601b60058460ff16901b17846129fd90919063ffffffff16565b61294781600885612a3d9092919063ffffffff16565b505b5b5b5b5b505050565b61295a612b8a565b8260200151836000015151835101111561298a5761298983600261298386602001518651612aa4565b02612ac0565b5b60008060008451905085518051602081830101945086518101825260208701935050505b602081106129d157815183526020830192506020820191506020810390506129ae565b60006001826020036101000a039050801983511681855116818117865250508694505050505092915050565b81602001516001836000015151011115612a2357612a22826002846020015102612ac0565b5b815180516020818301018381536001820183525050505050565b612a45612b8a565b836020015184600001515183011115612a7357612a72846002612a6c876020015186612aa4565b02612ac0565b5b60006001836101000a0390508451805184818301018684198251161781528582018352505050849150509392505050565b600081831115612ab657829050612aba565b8190505b92915050565b606082600001519050612ad38383612766565b612add8382612952565b50505050565b60405180608001604052806004905b6060815260200190600190039081612af25790505090565b828054600181600116156101000203166002900490600052602060002090601f016020900481019282601f10612b4b57805160ff1916838001178555612b79565b82800160010185558215612b79579182015b82811115612b78578251825591602001919060010190612b5d565b5b509050612b869190612ba4565b5090565b604051806040016040528060608152602001600081525090565b612bc691905b80821115612bc2576000816000905550600101612baa565b5090565b9056fe50726f7661626c65207175657279207761732073656e742c2077616974696e6720666f72207468652063616c6c6261636ba265627a7a723158201e83162b6495d0140d235b4dbd5aafbe97094379a64da8f9907f4e4b894888eb64736f6c634300050c0032",
  "source": "import \"./Destroyable.sol\";\r\nimport \"./provableAPI.sol\";\r\npragma solidity 0.5.12;\r\n\r\ncontract Coinflip is Destroyable, usingProvable {\r\n\r\n    uint256 constant NUM_RANDOM_BYTES_REQUESTED = 1;\r\n    uint256 public latestNumber;\r\n\r\n    address payable public player;\r\n    uint betAmount;\r\n    bool pendingBet = false;\r\n\r\n    event logNewProvableQuery(string description);\r\n    event generatedRandomNumber(uint256 randomNumber);\r\n\r\n    function placeBet () public payable {\r\n\r\n        player = msg.sender;\r\n        betAmount = msg.value;\r\n\r\n        require (pendingBet == false, \"Bet pending already\");\r\n        require (betAmount > 0, \"Bet not entered\");\r\n        require (betAmount <= address(this).balance/5, \"Bet limit exceeded\");\r\n\r\n        uint256 QUERY_EXECUTION_DELAY = 0;\r\n        uint256 GAS_FOR_CALLBACK =200000;\r\n        provable_newRandomDSQuery(QUERY_EXECUTION_DELAY, NUM_RANDOM_BYTES_REQUESTED, GAS_FOR_CALLBACK);\r\n\r\n        emit logNewProvableQuery (\"Provable query was sent, waiting for the callback\");\r\n        pendingBet = true;\r\n    }\r\n\r\n    function __callback(bytes32 _queryId, string memory _result, bytes memory _proof) public {\r\n\r\n        require(msg.sender == provable_cbAddress());\r\n\r\n        uint256 randomNumber = uint256(keccak256(abi.encodePacked(_result))) % 2;\r\n\r\n        if (randomNumber == 1){\r\n            player.transfer(19*betAmount/10);\r\n        }\r\n\r\n        emit generatedRandomNumber(randomNumber);\r\n        pendingBet = false;\r\n    }\r\n\r\n    function viewBalance () public view onlyOwner returns (uint) {\r\n\r\n        return address(this).balance;\r\n    }\r\n\r\n    function deposit() public payable onlyOwner {\r\n\r\n        require(msg.value > 0);\r\n    }\r\n\r\n    function withdraw (uint profit) public onlyOwner returns (uint){\r\n\r\n        require (profit <= address(this).balance);\r\n        msg.sender.transfer(profit);\r\n        return profit;\r\n    }\r\n}\r\n",
  "sourcePath": "C:/Users/USER/desktop/coinflip/contracts/Coinflip.sol",
  "compiler": {
    "name": "solc",
    "version": "0.5.12+commit.7709ece9.Emscripten.clang"
  },
  "schemaVersion": "3.0.16",
  "updatedAt": "2020-10-16T10:26:31.746Z",
  "devdoc": {
    "methods": {
      "__callback(bytes32,string)": {
        "details": "The following `__callback` functions are just placeholders ideally     meant to be defined in child contract when proofs are used.     The function bodies simply silence compiler warnings."
      }
    }
  },
  "userdoc": {
    "methods": {}
  }
}